{
  "contractName": "Marketplace",
  "abi": [
    {
      "inputs": [],
      "stateMutability": "nonpayable",
      "type": "constructor"
    },
    {
      "anonymous": false,
      "inputs": [
        {
          "indexed": false,
          "internalType": "uint256",
          "name": "id",
          "type": "uint256"
        },
        {
          "indexed": false,
          "internalType": "string",
          "name": "name",
          "type": "string"
        },
        {
          "indexed": false,
          "internalType": "uint256",
          "name": "price",
          "type": "uint256"
        },
        {
          "indexed": false,
          "internalType": "address",
          "name": "owner",
          "type": "address"
        },
        {
          "indexed": false,
          "internalType": "bool",
          "name": "purchased",
          "type": "bool"
        }
      ],
      "name": "ProductCreated",
      "type": "event"
    },
    {
      "inputs": [],
      "name": "name",
      "outputs": [
        {
          "internalType": "string",
          "name": "",
          "type": "string"
        }
      ],
      "stateMutability": "view",
      "type": "function"
    },
    {
      "inputs": [],
      "name": "productCount",
      "outputs": [
        {
          "internalType": "uint256",
          "name": "",
          "type": "uint256"
        }
      ],
      "stateMutability": "view",
      "type": "function"
    },
    {
      "inputs": [
        {
          "internalType": "uint256",
          "name": "",
          "type": "uint256"
        }
      ],
      "name": "products",
      "outputs": [
        {
          "internalType": "uint256",
          "name": "id",
          "type": "uint256"
        },
        {
          "internalType": "string",
          "name": "name",
          "type": "string"
        },
        {
          "internalType": "uint256",
          "name": "price",
          "type": "uint256"
        },
        {
          "internalType": "address",
          "name": "owner",
          "type": "address"
        },
        {
          "internalType": "bool",
          "name": "purchased",
          "type": "bool"
        }
      ],
      "stateMutability": "view",
      "type": "function"
    },
    {
      "inputs": [
        {
          "internalType": "string",
          "name": "_name",
          "type": "string"
        },
        {
          "internalType": "uint256",
          "name": "_price",
          "type": "uint256"
        }
      ],
      "name": "createProduct",
      "outputs": [],
      "stateMutability": "nonpayable",
      "type": "function"
    }
  ],
  "bytecode": "0x6080604052600060015534801561001557600080fd5b506040518060400160405280600581526020017f4d6f756c6900000000000000000000000000000000000000000000000000000081525060009080519060200190610061929190610067565b5061016b565b82805461007390610139565b90600052602060002090601f01602090048101928261009557600085556100dc565b82601f106100ae57805160ff19168380011785556100dc565b828001600101855582156100dc579182015b828111156100db5782518255916020019190600101906100c0565b5b5090506100e991906100ed565b5090565b5b808211156101065760008160009055506001016100ee565b5090565b7f4e487b7100000000000000000000000000000000000000000000000000000000600052602260045260246000fd5b6000600282049050600182168061015157607f821691505b602082108114156101655761016461010a565b5b50919050565b6109898061017a6000396000f3fe608060405234801561001057600080fd5b506004361061004c5760003560e01c806306fdde03146100515780637acc0b201461006f578063e0f6ef87146100a3578063e9300c6c146100c1575b600080fd5b6100596100dd565b6040516100669190610570565b60405180910390f35b610089600480360381019061008491906105dc565b61016b565b60405161009a959493929190610674565b60405180910390f35b6100ab610256565b6040516100b891906106ce565b60405180910390f35b6100db60048036038101906100d6919061081e565b61025c565b005b600080546100ea906108a9565b80601f0160208091040260200160405190810160405280929190818152602001828054610116906108a9565b80156101635780601f1061013857610100808354040283529160200191610163565b820191906000526020600020905b81548152906001019060200180831161014657829003601f168201915b505050505081565b6002602052806000526040600020600091509050806000015490806001018054610194906108a9565b80601f01602080910402602001604051908101604052809291908181526020018280546101c0906108a9565b801561020d5780601f106101e25761010080835404028352916020019161020d565b820191906000526020600020905b8154815290600101906020018083116101f057829003601f168201915b5050505050908060020154908060030160009054906101000a900473ffffffffffffffffffffffffffffffffffffffff16908060030160149054906101000a900460ff16905085565b60015481565b6102646103ed565b6001548160000181815250508281602001819052508181604001818152505033816060019073ffffffffffffffffffffffffffffffffffffffff16908173ffffffffffffffffffffffffffffffffffffffff1681525050600081608001901515908115158152505080600260006001548152602001908152602001600020600082015181600001556020820151816001019080519060200190610308929190610434565b506040820151816002015560608201518160030160006101000a81548173ffffffffffffffffffffffffffffffffffffffff021916908373ffffffffffffffffffffffffffffffffffffffff16021790555060808201518160030160146101000a81548160ff021916908315150217905550905050600160008154809291906103909061090a565b91905055507fbc59c0c8165864dcceb377dd07d8f431d4303f8e501cb0a0374a10cc68d71836816000015182602001518360400151846060015185608001516040516103e0959493929190610674565b60405180910390a1505050565b6040518060a00160405280600081526020016060815260200160008152602001600073ffffffffffffffffffffffffffffffffffffffff1681526020016000151581525090565b828054610440906108a9565b90600052602060002090601f01602090048101928261046257600085556104a9565b82601f1061047b57805160ff19168380011785556104a9565b828001600101855582156104a9579182015b828111156104a857825182559160200191906001019061048d565b5b5090506104b691906104ba565b5090565b5b808211156104d35760008160009055506001016104bb565b5090565b600081519050919050565b600082825260208201905092915050565b60005b838110156105115780820151818401526020810190506104f6565b83811115610520576000848401525b50505050565b6000601f19601f8301169050919050565b6000610542826104d7565b61054c81856104e2565b935061055c8185602086016104f3565b61056581610526565b840191505092915050565b6000602082019050818103600083015261058a8184610537565b905092915050565b6000604051905090565b600080fd5b600080fd5b6000819050919050565b6105b9816105a6565b81146105c457600080fd5b50565b6000813590506105d6816105b0565b92915050565b6000602082840312156105f2576105f161059c565b5b6000610600848285016105c7565b91505092915050565b610612816105a6565b82525050565b600073ffffffffffffffffffffffffffffffffffffffff82169050919050565b600061064382610618565b9050919050565b61065381610638565b82525050565b60008115159050919050565b61066e81610659565b82525050565b600060a0820190506106896000830188610609565b818103602083015261069b8187610537565b90506106aa6040830186610609565b6106b7606083018561064a565b6106c46080830184610665565b9695505050505050565b60006020820190506106e36000830184610609565b92915050565b600080fd5b600080fd5b7f4e487b7100000000000000000000000000000000000000000000000000000000600052604160045260246000fd5b61072b82610526565b810181811067ffffffffffffffff8211171561074a576107496106f3565b5b80604052505050565b600061075d610592565b90506107698282610722565b919050565b600067ffffffffffffffff821115610789576107886106f3565b5b61079282610526565b9050602081019050919050565b82818337600083830152505050565b60006107c16107bc8461076e565b610753565b9050828152602081018484840111156107dd576107dc6106ee565b5b6107e884828561079f565b509392505050565b600082601f830112610805576108046106e9565b5b81356108158482602086016107ae565b91505092915050565b600080604083850312156108355761083461059c565b5b600083013567ffffffffffffffff811115610853576108526105a1565b5b61085f858286016107f0565b9250506020610870858286016105c7565b9150509250929050565b7f4e487b7100000000000000000000000000000000000000000000000000000000600052602260045260246000fd5b600060028204905060018216806108c157607f821691505b602082108114156108d5576108d461087a565b5b50919050565b7f4e487b7100000000000000000000000000000000000000000000000000000000600052601160045260246000fd5b6000610915826105a6565b91507fffffffffffffffffffffffffffffffffffffffffffffffffffffffffffffffff821415610948576109476108db565b5b60018201905091905056fea264697066735822122016fbcfe1e4d2cb482761be999b53ce1a087d26a913a072d7d771db28530d753e64736f6c634300080a0033",
  "immutableReferences": {},
  "source": "// SPDX-License-Identifier: MIT\r\n\r\npragma solidity ^0.8.10;\r\n\r\ncontract Marketplace{\r\n    string public name;\r\n    uint public productCount=0;\r\n    mapping(uint => Product) public products;\r\n    struct Product{\r\n        uint id;\r\n        string name;\r\n        uint price;\r\n        address owner;\r\n        bool purchased;\r\n    }\r\n    event ProductCreated(uint id, string name, uint price, address owner, bool purchased);\r\n\r\n    constructor() {\r\n        name=\"Mouli\";\r\n    }\r\n\r\n    function createProduct(string memory _name, uint _price) public {\r\n        Product memory product;\r\n        product.id=productCount;\r\n        product.name=_name;\r\n        product.price=_price;\r\n        product.owner=msg.sender;\r\n        product.purchased=false;\r\n        products[productCount]=product;\r\n        productCount++;\r\n        emit ProductCreated(product.id, product.name, product.price, product.owner, product.purchased);\r\n    }\r\n\r\n}",
  "sourcePath": "Z:\\Blockchain\\project\\market\\starter_kit\\src\\contracts\\Marketplace.sol",
  "compiler": {
    "name": "solc",
    "version": "0.8.10+commit.fc410830.Emscripten.clang"
  },
  "schemaVersion": "3.4.8",
  "updatedAt": "2022-07-10T15:03:35.383Z",
  "devdoc": {
    "kind": "dev",
    "methods": {},
    "version": 1
  },
  "userdoc": {
    "kind": "user",
    "methods": {},
    "version": 1
  }
}